{
  "_format": "hh-sol-artifact-1",
  "contractName": "FluidoToken",
  "sourceName": "contracts/FluidoToken.sol",
  "abi": [
    {
      "inputs": [
        {
          "internalType": "string",
          "name": "name",
          "type": "string"
        },
        {
          "internalType": "string",
          "name": "symbol",
          "type": "string"
        },
        {
          "internalType": "string",
          "name": "_description",
          "type": "string"
        },
        {
          "internalType": "uint256",
          "name": "_rewardPercentage",
          "type": "uint256"
        },
        {
          "internalType": "address",
          "name": "_factoryAddress",
          "type": "address"
        }
      ],
      "stateMutability": "nonpayable",
      "type": "constructor"
    },
    {
      "anonymous": false,
      "inputs": [
        {
          "indexed": true,
          "internalType": "address",
          "name": "owner",
          "type": "address"
        },
        {
          "indexed": true,
          "internalType": "address",
          "name": "spender",
          "type": "address"
        },
        {
          "indexed": false,
          "internalType": "uint256",
          "name": "value",
          "type": "uint256"
        }
      ],
      "name": "Approval",
      "type": "event"
    },
    {
      "anonymous": false,
      "inputs": [
        {
          "indexed": true,
          "internalType": "address",
          "name": "from",
          "type": "address"
        },
        {
          "indexed": true,
          "internalType": "address",
          "name": "to",
          "type": "address"
        },
        {
          "indexed": false,
          "internalType": "uint256",
          "name": "value",
          "type": "uint256"
        }
      ],
      "name": "Transfer",
      "type": "event"
    },
    {
      "inputs": [
        {
          "internalType": "address",
          "name": "owner",
          "type": "address"
        },
        {
          "internalType": "address",
          "name": "spender",
          "type": "address"
        }
      ],
      "name": "allowance",
      "outputs": [
        {
          "internalType": "uint256",
          "name": "",
          "type": "uint256"
        }
      ],
      "stateMutability": "view",
      "type": "function"
    },
    {
      "inputs": [
        {
          "internalType": "address",
          "name": "spender",
          "type": "address"
        },
        {
          "internalType": "uint256",
          "name": "amount",
          "type": "uint256"
        }
      ],
      "name": "approve",
      "outputs": [
        {
          "internalType": "bool",
          "name": "",
          "type": "bool"
        }
      ],
      "stateMutability": "nonpayable",
      "type": "function"
    },
    {
      "inputs": [
        {
          "internalType": "address",
          "name": "account",
          "type": "address"
        }
      ],
      "name": "balanceOf",
      "outputs": [
        {
          "internalType": "uint256",
          "name": "",
          "type": "uint256"
        }
      ],
      "stateMutability": "view",
      "type": "function"
    },
    {
      "inputs": [],
      "name": "calculateReward",
      "outputs": [
        {
          "internalType": "uint256",
          "name": "calculatedReward",
          "type": "uint256"
        }
      ],
      "stateMutability": "view",
      "type": "function"
    },
    {
      "inputs": [],
      "name": "claimReward",
      "outputs": [],
      "stateMutability": "nonpayable",
      "type": "function"
    },
    {
      "inputs": [],
      "name": "decimals",
      "outputs": [
        {
          "internalType": "uint8",
          "name": "",
          "type": "uint8"
        }
      ],
      "stateMutability": "view",
      "type": "function"
    },
    {
      "inputs": [
        {
          "internalType": "address",
          "name": "spender",
          "type": "address"
        },
        {
          "internalType": "uint256",
          "name": "subtractedValue",
          "type": "uint256"
        }
      ],
      "name": "decreaseAllowance",
      "outputs": [
        {
          "internalType": "bool",
          "name": "",
          "type": "bool"
        }
      ],
      "stateMutability": "nonpayable",
      "type": "function"
    },
    {
      "inputs": [],
      "name": "getDeposit",
      "outputs": [
        {
          "components": [
            {
              "internalType": "uint256",
              "name": "timestamp",
              "type": "uint256"
            },
            {
              "internalType": "uint256",
              "name": "amount",
              "type": "uint256"
            }
          ],
          "internalType": "struct IFluidoToken.Deposit",
          "name": "",
          "type": "tuple"
        }
      ],
      "stateMutability": "view",
      "type": "function"
    },
    {
      "inputs": [
        {
          "internalType": "address",
          "name": "spender",
          "type": "address"
        },
        {
          "internalType": "uint256",
          "name": "addedValue",
          "type": "uint256"
        }
      ],
      "name": "increaseAllowance",
      "outputs": [
        {
          "internalType": "bool",
          "name": "",
          "type": "bool"
        }
      ],
      "stateMutability": "nonpayable",
      "type": "function"
    },
    {
      "inputs": [],
      "name": "mint",
      "outputs": [],
      "stateMutability": "payable",
      "type": "function"
    },
    {
      "inputs": [],
      "name": "name",
      "outputs": [
        {
          "internalType": "string",
          "name": "",
          "type": "string"
        }
      ],
      "stateMutability": "view",
      "type": "function"
    },
    {
      "inputs": [],
      "name": "symbol",
      "outputs": [
        {
          "internalType": "string",
          "name": "",
          "type": "string"
        }
      ],
      "stateMutability": "view",
      "type": "function"
    },
    {
      "inputs": [],
      "name": "totalLocked",
      "outputs": [
        {
          "internalType": "uint256",
          "name": "",
          "type": "uint256"
        }
      ],
      "stateMutability": "view",
      "type": "function"
    },
    {
      "inputs": [],
      "name": "totalSupply",
      "outputs": [
        {
          "internalType": "uint256",
          "name": "",
          "type": "uint256"
        }
      ],
      "stateMutability": "view",
      "type": "function"
    },
    {
      "inputs": [
        {
          "internalType": "address",
          "name": "to",
          "type": "address"
        },
        {
          "internalType": "uint256",
          "name": "amount",
          "type": "uint256"
        }
      ],
      "name": "transfer",
      "outputs": [
        {
          "internalType": "bool",
          "name": "",
          "type": "bool"
        }
      ],
      "stateMutability": "nonpayable",
      "type": "function"
    },
    {
      "inputs": [
        {
          "internalType": "address",
          "name": "from",
          "type": "address"
        },
        {
          "internalType": "address",
          "name": "to",
          "type": "address"
        },
        {
          "internalType": "uint256",
          "name": "amount",
          "type": "uint256"
        }
      ],
      "name": "transferFrom",
      "outputs": [
        {
          "internalType": "bool",
          "name": "",
          "type": "bool"
        }
      ],
      "stateMutability": "nonpayable",
      "type": "function"
    },
    {
      "inputs": [],
      "name": "withdraw",
      "outputs": [],
      "stateMutability": "nonpayable",
      "type": "function"
    }
  ],
  "bytecode": "0x60806040526107086005556101f460065560006007553480156200002257600080fd5b50604051620026ab380380620026ab833981810160405281019062000048919062000289565b848481600390805190602001906200006292919062000139565b5080600490805190602001906200007b92919062000139565b50505080600b60006101000a81548173ffffffffffffffffffffffffffffffffffffffff021916908373ffffffffffffffffffffffffffffffffffffffff16021790555033600a60006101000a81548173ffffffffffffffffffffffffffffffffffffffff021916908373ffffffffffffffffffffffffffffffffffffffff1602179055506064826200010f9190620003bd565b60098190555082600c90805190602001906200012d92919062000139565b50505050505062000589565b828054620001479062000492565b90600052602060002090601f0160209004810192826200016b5760008555620001b7565b82601f106200018657805160ff1916838001178555620001b7565b82800160010185558215620001b7579182015b82811115620001b657825182559160200191906001019062000199565b5b509050620001c69190620001ca565b5090565b5b80821115620001e5576000816000905550600101620001cb565b5090565b600062000200620001fa846200038a565b62000356565b9050828152602081018484840111156200021957600080fd5b620002268482856200045c565b509392505050565b6000815190506200023f8162000555565b92915050565b600082601f8301126200025757600080fd5b815162000269848260208601620001e9565b91505092915050565b60008151905062000283816200056f565b92915050565b600080600080600060a08688031215620002a257600080fd5b600086015167ffffffffffffffff811115620002bd57600080fd5b620002cb8882890162000245565b955050602086015167ffffffffffffffff811115620002e957600080fd5b620002f78882890162000245565b945050604086015167ffffffffffffffff8111156200031557600080fd5b620003238882890162000245565b9350506060620003368882890162000272565b925050608062000349888289016200022e565b9150509295509295909350565b6000604051905081810181811067ffffffffffffffff8211171562000380576200037f62000526565b5b8060405250919050565b600067ffffffffffffffff821115620003a857620003a762000526565b5b601f19601f8301169050602081019050919050565b6000620003ca8262000452565b9150620003d78362000452565b9250817fffffffffffffffffffffffffffffffffffffffffffffffffffffffffffffffff0483118215151615620004135762000412620004c8565b5b828202905092915050565b60006200042b8262000432565b9050919050565b600073ffffffffffffffffffffffffffffffffffffffff82169050919050565b6000819050919050565b60005b838110156200047c5780820151818401526020810190506200045f565b838111156200048c576000848401525b50505050565b60006002820490506001821680620004ab57607f821691505b60208210811415620004c257620004c1620004f7565b5b50919050565b7f4e487b7100000000000000000000000000000000000000000000000000000000600052601160045260246000fd5b7f4e487b7100000000000000000000000000000000000000000000000000000000600052602260045260246000fd5b7f4e487b7100000000000000000000000000000000000000000000000000000000600052604160045260246000fd5b62000560816200041e565b81146200056c57600080fd5b50565b6200057a8162000452565b81146200058657600080fd5b50565b61211280620005996000396000f3fe6080604052600436106100fe5760003560e01c80635689141211610095578063a457c2d711610064578063a457c2d71461031a578063a9059cbb14610357578063b88a802f14610394578063c399ec88146103ab578063dd62ed3e146103d6576100fe565b8063568914121461025c57806370a0823114610287578063725cedd3146102c457806395d89b41146102ef576100fe565b806323b872dd116100d157806323b872dd146101a0578063313ce567146101dd57806339509351146102085780633ccfd60b14610245576100fe565b806306fdde0314610103578063095ea7b31461012e5780631249c58b1461016b57806318160ddd14610175575b600080fd5b34801561010f57600080fd5b50610118610413565b6040516101259190611bf2565b60405180910390f35b34801561013a57600080fd5b5061015560048036038101906101509190611647565b6104a5565b6040516101629190611bd7565b60405180910390f35b6101736104c8565b005b34801561018157600080fd5b5061018a61059b565b6040516101979190611def565b60405180910390f35b3480156101ac57600080fd5b506101c760048036038101906101c291906115f8565b6105a5565b6040516101d49190611bd7565b60405180910390f35b3480156101e957600080fd5b506101f26105d4565b6040516101ff9190611e0a565b60405180910390f35b34801561021457600080fd5b5061022f600480360381019061022a9190611647565b6105dd565b60405161023c9190611bd7565b60405180910390f35b34801561025157600080fd5b5061025a610687565b005b34801561026857600080fd5b5061027161081a565b60405161027e9190611def565b60405180910390f35b34801561029357600080fd5b506102ae60048036038101906102a99190611593565b610820565b6040516102bb9190611def565b60405180910390f35b3480156102d057600080fd5b506102d9610868565b6040516102e69190611def565b60405180910390f35b3480156102fb57600080fd5b50610304610932565b6040516103119190611bf2565b60405180910390f35b34801561032657600080fd5b50610341600480360381019061033c9190611647565b6109c4565b60405161034e9190611bd7565b60405180910390f35b34801561036357600080fd5b5061037e60048036038101906103799190611647565b610aae565b60405161038b9190611bd7565b60405180910390f35b3480156103a057600080fd5b506103a9610ad1565b005b3480156103b757600080fd5b506103c0610c3c565b6040516103cd9190611dd4565b60405180910390f35b3480156103e257600080fd5b506103fd60048036038101906103f891906115bc565b610ca7565b60405161040a9190611def565b60405180910390f35b60606003805461042290611fde565b80601f016020809104026020016040519081016040528092919081815260200182805461044e90611fde565b801561049b5780601f106104705761010080835404028352916020019161049b565b820191906000526020600020905b81548152906001019060200180831161047e57829003601f168201915b5050505050905090565b6000806104b0610d2e565b90506104bd818585610d36565b600191505092915050565b6000341161050b576040517f08c379a000000000000000000000000000000000000000000000000000000000815260040161050290611c34565b60405180910390fd5b604051806040016040528042815260200134815250600860003373ffffffffffffffffffffffffffffffffffffffff1673ffffffffffffffffffffffffffffffffffffffff168152602001908152602001600020600082015181600001556020820151816001015590505034600760008282546105889190611e41565b925050819055506105993334610f01565b565b6000600254905090565b6000806105b0610d2e565b90506105bd858285611061565b6105c88585856110ed565b60019150509392505050565b60006012905090565b6000806105e8610d2e565b905061067c818585600160008673ffffffffffffffffffffffffffffffffffffffff1673ffffffffffffffffffffffffffffffffffffffff16815260200190815260200160002060008973ffffffffffffffffffffffffffffffffffffffff1673ffffffffffffffffffffffffffffffffffffffff168152602001908152602001600020546106779190611e41565b610d36565b600191505092915050565b6000600860003373ffffffffffffffffffffffffffffffffffffffff1673ffffffffffffffffffffffffffffffffffffffff168152602001908152602001600020600101541161070c576040517f08c379a000000000000000000000000000000000000000000000000000000000815260040161070390611cf4565b60405180910390fd5b6000600860003373ffffffffffffffffffffffffffffffffffffffff1673ffffffffffffffffffffffffffffffffffffffff168152602001908152602001600020600101549050600860003373ffffffffffffffffffffffffffffffffffffffff1673ffffffffffffffffffffffffffffffffffffffff168152602001908152602001600020600080820160009055600182016000905550506107b7336107b233610820565b61136e565b80600760008282546107c99190611f22565b925050819055503373ffffffffffffffffffffffffffffffffffffffff166108fc829081150290604051600060405180830381858888f19350505050158015610816573d6000803e3d6000fd5b5050565b60075481565b60008060008373ffffffffffffffffffffffffffffffffffffffff1673ffffffffffffffffffffffffffffffffffffffff168152602001908152602001600020549050919050565b6000612710600954600860003373ffffffffffffffffffffffffffffffffffffffff1673ffffffffffffffffffffffffffffffffffffffff16815260200190815260200160002060000154426108be9190611f22565b62278d00600860003373ffffffffffffffffffffffffffffffffffffffff1673ffffffffffffffffffffffffffffffffffffffff1681526020019081526020016000206001015461090f9190611e97565b6109199190611ec8565b6109239190611ec8565b61092d9190611e97565b905090565b60606004805461094190611fde565b80601f016020809104026020016040519081016040528092919081815260200182805461096d90611fde565b80156109ba5780601f1061098f576101008083540402835291602001916109ba565b820191906000526020600020905b81548152906001019060200180831161099d57829003601f168201915b5050505050905090565b6000806109cf610d2e565b90506000600160008373ffffffffffffffffffffffffffffffffffffffff1673ffffffffffffffffffffffffffffffffffffffff16815260200190815260200160002060008673ffffffffffffffffffffffffffffffffffffffff1673ffffffffffffffffffffffffffffffffffffffff16815260200190815260200160002054905083811015610a95576040517f08c379a0000000000000000000000000000000000000000000000000000000008152600401610a8c90611d94565b60405180910390fd5b610aa28286868403610d36565b60019250505092915050565b600080610ab9610d2e565b9050610ac68185856110ed565b600191505092915050565b6000600860003373ffffffffffffffffffffffffffffffffffffffff1673ffffffffffffffffffffffffffffffffffffffff1681526020019081526020016000206001015411610b56576040517f08c379a0000000000000000000000000000000000000000000000000000000008152600401610b4d90611d74565b60405180910390fd5b600554600860003373ffffffffffffffffffffffffffffffffffffffff1673ffffffffffffffffffffffffffffffffffffffff1681526020019081526020016000206000015411610bdc576040517f08c379a0000000000000000000000000000000000000000000000000000000008152600401610bd390611c94565b60405180910390fd5b6000610be6610868565b905042600860003373ffffffffffffffffffffffffffffffffffffffff1673ffffffffffffffffffffffffffffffffffffffff16815260200190815260200160002060000181905550610c393382610f01565b50565b610c4461154f565b600860003373ffffffffffffffffffffffffffffffffffffffff1673ffffffffffffffffffffffffffffffffffffffff16815260200190815260200160002060405180604001604052908160008201548152602001600182015481525050905090565b6000600160008473ffffffffffffffffffffffffffffffffffffffff1673ffffffffffffffffffffffffffffffffffffffff16815260200190815260200160002060008373ffffffffffffffffffffffffffffffffffffffff1673ffffffffffffffffffffffffffffffffffffffff16815260200190815260200160002054905092915050565b600033905090565b600073ffffffffffffffffffffffffffffffffffffffff168373ffffffffffffffffffffffffffffffffffffffff161415610da6576040517f08c379a0000000000000000000000000000000000000000000000000000000008152600401610d9d90611d54565b60405180910390fd5b600073ffffffffffffffffffffffffffffffffffffffff168273ffffffffffffffffffffffffffffffffffffffff161415610e16576040517f08c379a0000000000000000000000000000000000000000000000000000000008152600401610e0d90611c74565b60405180910390fd5b80600160008573ffffffffffffffffffffffffffffffffffffffff1673ffffffffffffffffffffffffffffffffffffffff16815260200190815260200160002060008473ffffffffffffffffffffffffffffffffffffffff1673ffffffffffffffffffffffffffffffffffffffff168152602001908152602001600020819055508173ffffffffffffffffffffffffffffffffffffffff168373ffffffffffffffffffffffffffffffffffffffff167f8c5be1e5ebec7d5bd14f71427d1e84f3dd0314c0f7b2291e5b200ac8c7c3b92583604051610ef49190611def565b60405180910390a3505050565b600073ffffffffffffffffffffffffffffffffffffffff168273ffffffffffffffffffffffffffffffffffffffff161415610f71576040517f08c379a0000000000000000000000000000000000000000000000000000000008152600401610f6890611db4565b60405180910390fd5b610f7d60008383611545565b8060026000828254610f8f9190611e41565b92505081905550806000808473ffffffffffffffffffffffffffffffffffffffff1673ffffffffffffffffffffffffffffffffffffffff1681526020019081526020016000206000828254610fe49190611e41565b925050819055508173ffffffffffffffffffffffffffffffffffffffff16600073ffffffffffffffffffffffffffffffffffffffff167fddf252ad1be2c89b69c2b068fc378daa952ba7f163c4a11628f55a4df523b3ef836040516110499190611def565b60405180910390a361105d6000838361154a565b5050565b600061106d8484610ca7565b90507fffffffffffffffffffffffffffffffffffffffffffffffffffffffffffffffff81146110e757818110156110d9576040517f08c379a00000000000000000000000000000000000000000000000000000000081526004016110d090611cb4565b60405180910390fd5b6110e68484848403610d36565b5b50505050565b600073ffffffffffffffffffffffffffffffffffffffff168373ffffffffffffffffffffffffffffffffffffffff16141561115d576040517f08c379a000000000000000000000000000000000000000000000000000000000815260040161115490611d34565b60405180910390fd5b600073ffffffffffffffffffffffffffffffffffffffff168273ffffffffffffffffffffffffffffffffffffffff1614156111cd576040517f08c379a00000000000000000000000000000000000000000000000000000000081526004016111c490611c14565b60405180910390fd5b6111d8838383611545565b60008060008573ffffffffffffffffffffffffffffffffffffffff1673ffffffffffffffffffffffffffffffffffffffff1681526020019081526020016000205490508181101561125e576040517f08c379a000000000000000000000000000000000000000000000000000000000815260040161125590611cd4565b60405180910390fd5b8181036000808673ffffffffffffffffffffffffffffffffffffffff1673ffffffffffffffffffffffffffffffffffffffff16815260200190815260200160002081905550816000808573ffffffffffffffffffffffffffffffffffffffff1673ffffffffffffffffffffffffffffffffffffffff16815260200190815260200160002060008282546112f19190611e41565b925050819055508273ffffffffffffffffffffffffffffffffffffffff168473ffffffffffffffffffffffffffffffffffffffff167fddf252ad1be2c89b69c2b068fc378daa952ba7f163c4a11628f55a4df523b3ef846040516113559190611def565b60405180910390a361136884848461154a565b50505050565b600073ffffffffffffffffffffffffffffffffffffffff168273ffffffffffffffffffffffffffffffffffffffff1614156113de576040517f08c379a00000000000000000000000000000000000000000000000000000000081526004016113d590611d14565b60405180910390fd5b6113ea82600083611545565b60008060008473ffffffffffffffffffffffffffffffffffffffff1673ffffffffffffffffffffffffffffffffffffffff16815260200190815260200160002054905081811015611470576040517f08c379a000000000000000000000000000000000000000000000000000000000815260040161146790611c54565b60405180910390fd5b8181036000808573ffffffffffffffffffffffffffffffffffffffff1673ffffffffffffffffffffffffffffffffffffffff1681526020019081526020016000208190555081600260008282546114c79190611f22565b92505081905550600073ffffffffffffffffffffffffffffffffffffffff168373ffffffffffffffffffffffffffffffffffffffff167fddf252ad1be2c89b69c2b068fc378daa952ba7f163c4a11628f55a4df523b3ef8460405161152c9190611def565b60405180910390a36115408360008461154a565b505050565b505050565b505050565b604051806040016040528060008152602001600081525090565b600081359050611578816120ae565b92915050565b60008135905061158d816120c5565b92915050565b6000602082840312156115a557600080fd5b60006115b384828501611569565b91505092915050565b600080604083850312156115cf57600080fd5b60006115dd85828601611569565b92505060206115ee85828601611569565b9150509250929050565b60008060006060848603121561160d57600080fd5b600061161b86828701611569565b935050602061162c86828701611569565b925050604061163d8682870161157e565b9150509250925092565b6000806040838503121561165a57600080fd5b600061166885828601611569565b92505060206116798582860161157e565b9150509250929050565b61168c81611f68565b82525050565b600061169d82611e25565b6116a78185611e30565b93506116b7818560208601611fab565b6116c08161209d565b840191505092915050565b60006116d8602383611e30565b91507f45524332303a207472616e7366657220746f20746865207a65726f206164647260008301527f65737300000000000000000000000000000000000000000000000000000000006020830152604082019050919050565b600061173e600d83611e30565b91507f76616c7565206973207a65726f000000000000000000000000000000000000006000830152602082019050919050565b600061177e602283611e30565b91507f45524332303a206275726e20616d6f756e7420657863656564732062616c616e60008301527f63650000000000000000000000000000000000000000000000000000000000006020830152604082019050919050565b60006117e4602283611e30565b91507f45524332303a20617070726f766520746f20746865207a65726f20616464726560008301527f73730000000000000000000000000000000000000000000000000000000000006020830152604082019050919050565b600061184a601183611e30565b91507f4d696e20776169742072657175697265640000000000000000000000000000006000830152602082019050919050565b600061188a601d83611e30565b91507f45524332303a20696e73756666696369656e7420616c6c6f77616e63650000006000830152602082019050919050565b60006118ca602683611e30565b91507f45524332303a207472616e7366657220616d6f756e742065786365656473206260008301527f616c616e636500000000000000000000000000000000000000000000000000006020830152604082019050919050565b6000611930601583611e30565b91507f746f6b656e2062616c616e6365206973207a65726f00000000000000000000006000830152602082019050919050565b6000611970602183611e30565b91507f45524332303a206275726e2066726f6d20746865207a65726f2061646472657360008301527f73000000000000000000000000000000000000000000000000000000000000006020830152604082019050919050565b60006119d6602583611e30565b91507f45524332303a207472616e736665722066726f6d20746865207a65726f20616460008301527f64726573730000000000000000000000000000000000000000000000000000006020830152604082019050919050565b6000611a3c602483611e30565b91507f45524332303a20617070726f76652066726f6d20746865207a65726f2061646460008301527f72657373000000000000000000000000000000000000000000000000000000006020830152604082019050919050565b6000611aa2601583611e30565b91507f6e6f20617661696c61626c65206465706f7369747300000000000000000000006000830152602082019050919050565b6000611ae2602583611e30565b91507f45524332303a2064656372656173656420616c6c6f77616e63652062656c6f7760008301527f207a65726f0000000000000000000000000000000000000000000000000000006020830152604082019050919050565b6000611b48601f83611e30565b91507f45524332303a206d696e7420746f20746865207a65726f2061646472657373006000830152602082019050919050565b604082016000820151611b916000850182611baa565b506020820151611ba46020850182611baa565b50505050565b611bb381611f94565b82525050565b611bc281611f94565b82525050565b611bd181611f9e565b82525050565b6000602082019050611bec6000830184611683565b92915050565b60006020820190508181036000830152611c0c8184611692565b905092915050565b60006020820190508181036000830152611c2d816116cb565b9050919050565b60006020820190508181036000830152611c4d81611731565b9050919050565b60006020820190508181036000830152611c6d81611771565b9050919050565b60006020820190508181036000830152611c8d816117d7565b9050919050565b60006020820190508181036000830152611cad8161183d565b9050919050565b60006020820190508181036000830152611ccd8161187d565b9050919050565b60006020820190508181036000830152611ced816118bd565b9050919050565b60006020820190508181036000830152611d0d81611923565b9050919050565b60006020820190508181036000830152611d2d81611963565b9050919050565b60006020820190508181036000830152611d4d816119c9565b9050919050565b60006020820190508181036000830152611d6d81611a2f565b9050919050565b60006020820190508181036000830152611d8d81611a95565b9050919050565b60006020820190508181036000830152611dad81611ad5565b9050919050565b60006020820190508181036000830152611dcd81611b3b565b9050919050565b6000604082019050611de96000830184611b7b565b92915050565b6000602082019050611e046000830184611bb9565b92915050565b6000602082019050611e1f6000830184611bc8565b92915050565b600081519050919050565b600082825260208201905092915050565b6000611e4c82611f94565b9150611e5783611f94565b9250827fffffffffffffffffffffffffffffffffffffffffffffffffffffffffffffffff03821115611e8c57611e8b612010565b5b828201905092915050565b6000611ea282611f94565b9150611ead83611f94565b925082611ebd57611ebc61203f565b5b828204905092915050565b6000611ed382611f94565b9150611ede83611f94565b9250817fffffffffffffffffffffffffffffffffffffffffffffffffffffffffffffffff0483118215151615611f1757611f16612010565b5b828202905092915050565b6000611f2d82611f94565b9150611f3883611f94565b925082821015611f4b57611f4a612010565b5b828203905092915050565b6000611f6182611f74565b9050919050565b60008115159050919050565b600073ffffffffffffffffffffffffffffffffffffffff82169050919050565b6000819050919050565b600060ff82169050919050565b60005b83811015611fc9578082015181840152602081019050611fae565b83811115611fd8576000848401525b50505050565b60006002820490506001821680611ff657607f821691505b6020821081141561200a5761200961206e565b5b50919050565b7f4e487b7100000000000000000000000000000000000000000000000000000000600052601160045260246000fd5b7f4e487b7100000000000000000000000000000000000000000000000000000000600052601260045260246000fd5b7f4e487b7100000000000000000000000000000000000000000000000000000000600052602260045260246000fd5b6000601f19601f8301169050919050565b6120b781611f56565b81146120c257600080fd5b50565b6120ce81611f94565b81146120d957600080fd5b5056fea264697066735822122095cfa8958984245ce1a5d754d3bfc9b7fa0aaa803b35f852b675503294d7d6ec64736f6c63430008000033",
  "linkReferences": {},
  "deployedLinkReferences": {}
}